{
  "contractName": "CryptoMon",
  "abi": [
    {
      "constant": true,
      "inputs": [
        {
          "name": "interfaceID",
          "type": "bytes4"
        }
      ],
      "name": "supportsInterface",
      "outputs": [
        {
          "name": "",
          "type": "bool"
        }
      ],
      "payable": false,
      "stateMutability": "view",
      "type": "function"
    },
    {
      "constant": true,
      "inputs": [
        {
          "name": "_tokenId",
          "type": "uint256"
        }
      ],
      "name": "getApproved",
      "outputs": [
        {
          "name": "",
          "type": "address"
        }
      ],
      "payable": false,
      "stateMutability": "view",
      "type": "function"
    },
    {
      "constant": false,
      "inputs": [
        {
          "name": "_approved",
          "type": "address"
        },
        {
          "name": "_tokenId",
          "type": "uint256"
        }
      ],
      "name": "approve",
      "outputs": [],
      "payable": true,
      "stateMutability": "payable",
      "type": "function"
    },
    {
      "constant": false,
      "inputs": [
        {
          "name": "_min",
          "type": "uint256"
        },
        {
          "name": "_max",
          "type": "uint256"
        }
      ],
      "name": "randInt",
      "outputs": [
        {
          "name": "",
          "type": "uint256"
        }
      ],
      "payable": false,
      "stateMutability": "nonpayable",
      "type": "function"
    },
    {
      "constant": false,
      "inputs": [
        {
          "name": "_newOwner",
          "type": "address"
        }
      ],
      "name": "nominateNewOwner",
      "outputs": [],
      "payable": false,
      "stateMutability": "nonpayable",
      "type": "function"
    },
    {
      "constant": true,
      "inputs": [],
      "name": "totalSupply",
      "outputs": [
        {
          "name": "",
          "type": "uint256"
        }
      ],
      "payable": false,
      "stateMutability": "view",
      "type": "function"
    },
    {
      "constant": false,
      "inputs": [
        {
          "name": "_from",
          "type": "address"
        },
        {
          "name": "_to",
          "type": "address"
        },
        {
          "name": "_tokenId",
          "type": "uint256"
        }
      ],
      "name": "transferFrom",
      "outputs": [],
      "payable": true,
      "stateMutability": "payable",
      "type": "function"
    },
    {
      "constant": false,
      "inputs": [
        {
          "name": "_from",
          "type": "address"
        },
        {
          "name": "_to",
          "type": "address"
        },
        {
          "name": "_tokenId",
          "type": "uint256"
        }
      ],
      "name": "safeTransferFrom",
      "outputs": [],
      "payable": true,
      "stateMutability": "payable",
      "type": "function"
    },
    {
      "constant": false,
      "inputs": [
        {
          "name": "_atk",
          "type": "uint8"
        },
        {
          "name": "_def",
          "type": "uint8"
        },
        {
          "name": "_spd",
          "type": "uint8"
        },
        {
          "name": "_lvl",
          "type": "uint8"
        },
        {
          "name": "_rarity",
          "type": "uint8"
        },
        {
          "name": "_exp",
          "type": "uint256"
        }
      ],
      "name": "createCustomMonster",
      "outputs": [
        {
          "name": "",
          "type": "uint32"
        }
      ],
      "payable": false,
      "stateMutability": "nonpayable",
      "type": "function"
    },
    {
      "constant": true,
      "inputs": [
        {
          "name": "_tokenId",
          "type": "uint256"
        }
      ],
      "name": "ownerOf",
      "outputs": [
        {
          "name": "",
          "type": "address"
        }
      ],
      "payable": false,
      "stateMutability": "view",
      "type": "function"
    },
    {
      "constant": true,
      "inputs": [
        {
          "name": "_owner",
          "type": "address"
        }
      ],
      "name": "balanceOf",
      "outputs": [
        {
          "name": "",
          "type": "uint256"
        }
      ],
      "payable": false,
      "stateMutability": "view",
      "type": "function"
    },
    {
      "constant": false,
      "inputs": [],
      "name": "acceptOwnership",
      "outputs": [],
      "payable": false,
      "stateMutability": "nonpayable",
      "type": "function"
    },
    {
      "constant": true,
      "inputs": [
        {
          "name": "",
          "type": "uint32"
        }
      ],
      "name": "inSale",
      "outputs": [
        {
          "name": "",
          "type": "uint256"
        }
      ],
      "payable": false,
      "stateMutability": "view",
      "type": "function"
    },
    {
      "constant": true,
      "inputs": [
        {
          "name": "",
          "type": "uint256"
        }
      ],
      "name": "params",
      "outputs": [
        {
          "name": "",
          "type": "uint64"
        }
      ],
      "payable": false,
      "stateMutability": "view",
      "type": "function"
    },
    {
      "constant": false,
      "inputs": [
        {
          "name": "_operator",
          "type": "address"
        },
        {
          "name": "_approved",
          "type": "bool"
        }
      ],
      "name": "setApprovalForAll",
      "outputs": [],
      "payable": false,
      "stateMutability": "nonpayable",
      "type": "function"
    },
    {
      "constant": false,
      "inputs": [
        {
          "name": "_from",
          "type": "address"
        },
        {
          "name": "_to",
          "type": "address"
        },
        {
          "name": "_tokenId",
          "type": "uint256"
        },
        {
          "name": "_data",
          "type": "bytes"
        }
      ],
      "name": "safeTransferFrom",
      "outputs": [],
      "payable": true,
      "stateMutability": "payable",
      "type": "function"
    },
    {
      "constant": true,
      "inputs": [
        {
          "name": "",
          "type": "uint256"
        }
      ],
      "name": "monsters",
      "outputs": [
        {
          "name": "atk",
          "type": "uint8"
        },
        {
          "name": "def",
          "type": "uint8"
        },
        {
          "name": "spd",
          "type": "uint8"
        },
        {
          "name": "lvl",
          "type": "uint8"
        },
        {
          "name": "rarity",
          "type": "uint8"
        },
        {
          "name": "exp",
          "type": "uint256"
        },
        {
          "name": "busy",
          "type": "bool"
        }
      ],
      "payable": false,
      "stateMutability": "view",
      "type": "function"
    },
    {
      "constant": false,
      "inputs": [
        {
          "name": "_parameter",
          "type": "uint8"
        },
        {
          "name": "_newValue",
          "type": "uint16"
        }
      ],
      "name": "changeParameter",
      "outputs": [],
      "payable": false,
      "stateMutability": "nonpayable",
      "type": "function"
    },
    {
      "constant": true,
      "inputs": [
        {
          "name": "_owner",
          "type": "address"
        },
        {
          "name": "_operator",
          "type": "address"
        }
      ],
      "name": "isApprovedForAll",
      "outputs": [
        {
          "name": "",
          "type": "bool"
        }
      ],
      "payable": false,
      "stateMutability": "view",
      "type": "function"
    },
    {
      "constant": true,
      "inputs": [],
      "name": "ERC721_RECEIVED",
      "outputs": [
        {
          "name": "",
          "type": "bytes4"
        }
      ],
      "payable": false,
      "stateMutability": "view",
      "type": "function"
    },
    {
      "constant": false,
      "inputs": [
        {
          "name": "_from",
          "type": "address"
        },
        {
          "name": "_tokenId",
          "type": "uint256"
        },
        {
          "name": "_data",
          "type": "bytes"
        }
      ],
      "name": "onERC721Received",
      "outputs": [
        {
          "name": "",
          "type": "bytes4"
        }
      ],
      "payable": false,
      "stateMutability": "nonpayable",
      "type": "function"
    },
    {
      "inputs": [],
      "payable": false,
      "stateMutability": "nonpayable",
      "type": "constructor"
    },
    {
      "anonymous": false,
      "inputs": [
        {
          "indexed": true,
          "name": "_player",
          "type": "address"
        },
        {
          "indexed": false,
          "name": "_ids",
          "type": "uint32[6]"
        }
      ],
      "name": "Unboxed",
      "type": "event"
    },
    {
      "anonymous": false,
      "inputs": [
        {
          "indexed": true,
          "name": "_player",
          "type": "address"
        },
        {
          "indexed": false,
          "name": "_id",
          "type": "uint32"
        },
        {
          "indexed": true,
          "name": "_price",
          "type": "uint256"
        }
      ],
      "name": "ForSale",
      "type": "event"
    },
    {
      "anonymous": false,
      "inputs": [
        {
          "indexed": true,
          "name": "_attacker",
          "type": "address"
        },
        {
          "indexed": true,
          "name": "_defender",
          "type": "address"
        },
        {
          "indexed": false,
          "name": "_team1",
          "type": "uint32[20]"
        },
        {
          "indexed": false,
          "name": "_team2",
          "type": "uint32[20]"
        },
        {
          "indexed": false,
          "name": "_bonusWinner",
          "type": "uint8"
        },
        {
          "indexed": true,
          "name": "_winnerId",
          "type": "uint256"
        },
        {
          "indexed": false,
          "name": "_moneyWon",
          "type": "uint256"
        }
      ],
      "name": "Results",
      "type": "event"
    },
    {
      "anonymous": false,
      "inputs": [
        {
          "indexed": true,
          "name": "_parameter",
          "type": "uint8"
        },
        {
          "indexed": false,
          "name": "_oldValue",
          "type": "uint256"
        },
        {
          "indexed": false,
          "name": "_newValue",
          "type": "uint256"
        }
      ],
      "name": "Changed",
      "type": "event"
    },
    {
      "anonymous": false,
      "inputs": [
        {
          "indexed": false,
          "name": "_id",
          "type": "uint32"
        },
        {
          "indexed": false,
          "name": "_atkMod",
          "type": "uint8"
        },
        {
          "indexed": false,
          "name": "_defMod",
          "type": "uint8"
        },
        {
          "indexed": false,
          "name": "_spdMod",
          "type": "uint8"
        }
      ],
      "name": "Upgraded",
      "type": "event"
    },
    {
      "anonymous": false,
      "inputs": [
        {
          "indexed": true,
          "name": "_from",
          "type": "address"
        },
        {
          "indexed": true,
          "name": "_to",
          "type": "address"
        },
        {
          "indexed": true,
          "name": "_tokenId",
          "type": "uint256"
        }
      ],
      "name": "Transfer",
      "type": "event"
    },
    {
      "anonymous": false,
      "inputs": [
        {
          "indexed": true,
          "name": "_owner",
          "type": "address"
        },
        {
          "indexed": true,
          "name": "_approved",
          "type": "address"
        },
        {
          "indexed": true,
          "name": "_tokenId",
          "type": "uint256"
        }
      ],
      "name": "Approval",
      "type": "event"
    },
    {
      "anonymous": false,
      "inputs": [
        {
          "indexed": true,
          "name": "_owner",
          "type": "address"
        },
        {
          "indexed": true,
          "name": "_operator",
          "type": "address"
        },
        {
          "indexed": false,
          "name": "_approved",
          "type": "bool"
        }
      ],
      "name": "ApprovalForAll",
      "type": "event"
    },
    {
      "anonymous": false,
      "inputs": [
        {
          "indexed": true,
          "name": "_from",
          "type": "address"
        },
        {
          "indexed": true,
          "name": "_to",
          "type": "address"
        }
      ],
      "name": "OwnershipTransferred",
      "type": "event"
    },
    {
      "constant": false,
      "inputs": [],
      "name": "unbox",
      "outputs": [],
      "payable": true,
      "stateMutability": "payable",
      "type": "function"
    },
    {
      "constant": false,
      "inputs": [
        {
          "name": "_ids",
          "type": "uint32[5]"
        },
        {
          "name": "_minBet",
          "type": "uint256"
        }
      ],
      "name": "fight",
      "outputs": [],
      "payable": true,
      "stateMutability": "payable",
      "type": "function"
    },
    {
      "constant": false,
      "inputs": [],
      "name": "stopWaiting",
      "outputs": [],
      "payable": false,
      "stateMutability": "nonpayable",
      "type": "function"
    },
    {
      "constant": false,
      "inputs": [
        {
          "name": "_id",
          "type": "uint32"
        },
        {
          "name": "_price",
          "type": "uint256"
        }
      ],
      "name": "sellMonster",
      "outputs": [],
      "payable": false,
      "stateMutability": "nonpayable",
      "type": "function"
    },
    {
      "constant": false,
      "inputs": [
        {
          "name": "_id",
          "type": "uint32"
        }
      ],
      "name": "buyMonster",
      "outputs": [],
      "payable": true,
      "stateMutability": "payable",
      "type": "function"
    },
    {
      "constant": false,
      "inputs": [],
      "name": "withdraw",
      "outputs": [
        {
          "name": "",
          "type": "uint256"
        }
      ],
      "payable": false,
      "stateMutability": "nonpayable",
      "type": "function"
    },
    {
      "constant": false,
      "inputs": [
        {
          "name": "_ids",
          "type": "uint32[]"
        },
        {
          "name": "_atkMod",
          "type": "uint8[]"
        },
        {
          "name": "_defMod",
          "type": "uint8[]"
        },
        {
          "name": "_spdMod",
          "type": "uint8[]"
        }
      ],
      "name": "lvlUp",
      "outputs": [],
      "payable": false,
      "stateMutability": "nonpayable",
      "type": "function"
    }
  ],
  "bytecode": "0x6080604052610180604051908101604052806608e1bc9bf0400066ffffffffffffff168152602001662c68af0bb1400066ffffffffffffff16815260200166853a0d2313c00066ffffffffffffff168152602001600066ffffffffffffff1681526020016102bc66ffffffffffffff1681526020016107d066ffffffffffffff168152602001600566ffffffffffffff168152602001606466ffffffffffffff168152602001602866ffffffffffffff16815260200161017766ffffffffffffff168152602001600166ffffffffffffff168152602001600566ffffffffffffff1681525060d390600c620000f692919062000152565b503480156200010457600080fd5b50336000806101000a81548173ffffffffffffffffffffffffffffffffffffffff021916908373ffffffffffffffffffffffffffffffffffffffff1602179055504260d28190555062000241565b82600c600301600490048101928215620001f45791602002820160005b83821115620001bc57835183826101000a81548167ffffffffffffffff021916908366ffffffffffffff16021790555092602001926008016020816007010492830192600103026200016f565b8015620001f25782816101000a81549067ffffffffffffffff0219169055600801602081600701049283019260010302620001bc565b505b50905062000203919062000207565b5090565b6200023e91905b808211156200023a57600081816101000a81549067ffffffffffffffff0219169055506001016200020e565b5090565b90565b615fc380620002516000396000f30060806040526004361061016a576000357c0100000000000000000000000000000000000000000000000000000000900463ffffffff16806301ffc9a71461016f578063081812fc146101d3578063095ea7b3146102405780630b15650b146102805780631627540c146102cb57806318160ddd1461030e57806323b872dd146103395780633ccfd60b1461039957806342842e0e146103c45780635fc04d5e146104245780636352211e146104b25780636ae535e61461051f57806370a082311461054957806379ba5097146105a05780638762c369146105b75780638fbf9acc146105f45780639d2f053c1461063b578063a22cb46514610690578063a65537e7146106df578063a74ba9f814610705578063b88d4fde1461070f578063c0576b73146107b5578063d1deddb414610842578063e985e9c514610880578063ea3e9412146108fb578063ecc98ce414610912578063f0b9e5ba1461097b578063fc236d8614610a32575b600080fd5b34801561017b57600080fd5b506101b960048036038101908080357bffffffffffffffffffffffffffffffffffffffffffffffffffffffff19169060200190929190505050610ab5565b604051808215151515815260200191505060405180910390f35b3480156101df57600080fd5b506101fe60048036038101908080359060200190929190505050610e43565b604051808273ffffffffffffffffffffffffffffffffffffffff1673ffffffffffffffffffffffffffffffffffffffff16815260200191505060405180910390f35b61027e600480360381019080803573ffffffffffffffffffffffffffffffffffffffff16906020019092919080359060200190929190505050610e93565b005b34801561028c57600080fd5b506102b560048036038101908080359060200190929190803590602001909291905050506110e2565b6040518082815260200191505060405180910390f35b3480156102d757600080fd5b5061030c600480360381019080803573ffffffffffffffffffffffffffffffffffffffff169060200190929190505050611133565b005b34801561031a57600080fd5b506103236111d2565b6040518082815260200191505060405180910390f35b610397600480360381019080803573ffffffffffffffffffffffffffffffffffffffff169060200190929190803573ffffffffffffffffffffffffffffffffffffffff169060200190929190803590602001909291905050506111df565b005b3480156103a557600080fd5b506103ae611559565b6040518082815260200191505060405180910390f35b610422600480360381019080803573ffffffffffffffffffffffffffffffffffffffff169060200190929190803573ffffffffffffffffffffffffffffffffffffffff1690602001909291908035906020019092919050505061167f565b005b34801561043057600080fd5b50610490600480360381019080803560ff169060200190929190803560ff169060200190929190803560ff169060200190929190803560ff169060200190929190803560ff1690602001909291908035906020019092919050505061183e565b604051808263ffffffff1663ffffffff16815260200191505060405180910390f35b3480156104be57600080fd5b506104dd60048036038101908080359060200190929190505050611aad565b604051808273ffffffffffffffffffffffffffffffffffffffff1673ffffffffffffffffffffffffffffffffffffffff16815260200191505060405180910390f35b6105476004803603810190808060a00190919291929080359060200190929190505050611b58565b005b34801561055557600080fd5b5061058a600480360381019080803573ffffffffffffffffffffffffffffffffffffffff169060200190929190505050612389565b6040518082815260200191505060405180910390f35b3480156105ac57600080fd5b506105b561240d565b005b3480156105c357600080fd5b506105f2600480360381019080803563ffffffff16906020019092919080359060200190929190505050612548565b005b34801561060057600080fd5b50610625600480360381019080803563ffffffff1690602001909291905050506126f4565b6040518082815260200191505060405180910390f35b34801561064757600080fd5b506106666004803603810190808035906020019092919050505061270c565b604051808267ffffffffffffffff1667ffffffffffffffff16815260200191505060405180910390f35b34801561069c57600080fd5b506106dd600480360381019080803573ffffffffffffffffffffffffffffffffffffffff16906020019092919080351515906020019092919050505061273f565b005b610703600480360381019080803563ffffffff169060200190929190505050612840565b005b61070d612be4565b005b6107b3600480360381019080803573ffffffffffffffffffffffffffffffffffffffff169060200190929190803573ffffffffffffffffffffffffffffffffffffffff16906020019092919080359060200190929190803590602001908201803590602001908080601f016020809104026020016040519081016040528093929190818152602001838380828437820191505050505050919291929050505061327d565b005b3480156107c157600080fd5b506107e0600480360381019080803590602001909291905050506135fa565b604051808860ff1660ff1681526020018760ff1660ff1681526020018660ff1660ff1681526020018560ff1660ff1681526020018460ff1660ff1681526020018381526020018215151515815260200197505050505050505060405180910390f35b34801561084e57600080fd5b5061087e600480360381019080803560ff169060200190929190803561ffff169060200190929190505050613699565b005b34801561088c57600080fd5b506108e1600480360381019080803573ffffffffffffffffffffffffffffffffffffffff169060200190929190803573ffffffffffffffffffffffffffffffffffffffff1690602001909291905050506137e6565b604051808215151515815260200191505060405180910390f35b34801561090757600080fd5b5061091061387a565b005b34801561091e57600080fd5b50610927613c93565b60405180827bffffffffffffffffffffffffffffffffffffffffffffffffffffffff19167bffffffffffffffffffffffffffffffffffffffffffffffffffffffff1916815260200191505060405180910390f35b34801561098757600080fd5b506109de600480360381019080803573ffffffffffffffffffffffffffffffffffffffff16906020019092919080359060200190929190803590602001908201803590602001919091929391929390505050613cba565b60405180827bffffffffffffffffffffffffffffffffffffffffffffffffffffffff19167bffffffffffffffffffffffffffffffffffffffffffffffffffffffff1916815260200191505060405180910390f35b348015610a3e57600080fd5b50610ab3600480360381019080803590602001908201803590602001919091929391929390803590602001908201803590602001919091929391929390803590602001908201803590602001919091929391929390803590602001908201803590602001919091929391929390505050613cea565b005b600080600060405180807f737570706f727473496e7465726661636528627974657334290000000000000081525060190190506040518091039020915060405180807f746f74616c537570706c79282900000000000000000000000000000000000000815250600d019050604051809103902060405180807f736166655472616e7366657246726f6d28616464726573732c6164647265737381526020017f2c75696e743235362c6279746573290000000000000000000000000000000000815250602f019050604051809103902060405180807f736166655472616e7366657246726f6d28616464726573732c6164647265737381526020017f2c75696e743235362900000000000000000000000000000000000000000000008152506029019050604051809103902060405180807f7472616e7366657246726f6d28616464726573732c616464726573732c75696e81526020017f74323536290000000000000000000000000000000000000000000000000000008152506025019050604051809103902060405180807f6973417070726f766564466f72416c6c28616464726573732c6164647265737381526020017f29000000000000000000000000000000000000000000000000000000000000008152506021019050604051809103902060405180807f736574417070726f76616c466f72416c6c28616464726573732c626f6f6c2900815250601f019050604051809103902060405180807f676574417070726f7665642875696e74323536290000000000000000000000008152506014019050604051809103902060405180807f617070726f766528616464726573732c75696e743235362900000000000000008152506018019050604051809103902060405180807f6f776e65724f662875696e7432353629000000000000000000000000000000008152506010019050604051809103902060405180807f62616c616e63654f662861646472657373290000000000000000000000000000815250601201905060405180910390201818181818181818189050817bffffffffffffffffffffffffffffffffffffffffffffffffffffffff1916847bffffffffffffffffffffffffffffffffffffffffffffffffffffffff19161480610e3a5750807bffffffffffffffffffffffffffffffffffffffffffffffffffffffff1916847bffffffffffffffffffffffffffffffffffffffffffffffffffffffff1916145b92505050919050565b600060028054905082101515610e5857600080fd5b60d1600083815260200190815260200160002060009054906101000a900473ffffffffffffffffffffffffffffffffffffffff169050919050565b33818173ffffffffffffffffffffffffffffffffffffffff1660cd600083815260200190815260200160002060009054906101000a900473ffffffffffffffffffffffffffffffffffffffff1673ffffffffffffffffffffffffffffffffffffffff161480610f6057508173ffffffffffffffffffffffffffffffffffffffff1660d1600083815260200190815260200160002060009054906101000a900473ffffffffffffffffffffffffffffffffffffffff1673ffffffffffffffffffffffffffffffffffffffff16145b80611024575060d0600060cd600084815260200190815260200160002060009054906101000a900473ffffffffffffffffffffffffffffffffffffffff1673ffffffffffffffffffffffffffffffffffffffff1673ffffffffffffffffffffffffffffffffffffffff16815260200190815260200160002060008373ffffffffffffffffffffffffffffffffffffffff1673ffffffffffffffffffffffffffffffffffffffff16815260200190815260200160002060009054906101000a900460ff165b151561102f57600080fd5b8360d1600085815260200190815260200160002060006101000a81548173ffffffffffffffffffffffffffffffffffffffff021916908373ffffffffffffffffffffffffffffffffffffffff160217905550828473ffffffffffffffffffffffffffffffffffffffff163373ffffffffffffffffffffffffffffffffffffffff167f8c5be1e5ebec7d5bd14f71427d1e84f3dd0314c0f7b2291e5b200ac8c7c3b92560405160405180910390a450505050565b600061f91763df27425a60d254640aa00ce320020181151561110057fe5b0660d28190555081831415611118576000905061112d565b8283830360d25481151561112857fe5b060190505b92915050565b6000809054906101000a900473ffffffffffffffffffffffffffffffffffffffff1673ffffffffffffffffffffffffffffffffffffffff163373ffffffffffffffffffffffffffffffffffffffff1614151561118e57600080fd5b80600160006101000a81548173ffffffffffffffffffffffffffffffffffffffff021916908373ffffffffffffffffffffffffffffffffffffffff16021790555050565b6000600280549050905090565b33818173ffffffffffffffffffffffffffffffffffffffff1660cd600083815260200190815260200160002060009054906101000a900473ffffffffffffffffffffffffffffffffffffffff1673ffffffffffffffffffffffffffffffffffffffff1614806112ac57508173ffffffffffffffffffffffffffffffffffffffff1660d1600083815260200190815260200160002060009054906101000a900473ffffffffffffffffffffffffffffffffffffffff1673ffffffffffffffffffffffffffffffffffffffff16145b80611370575060d0600060cd600084815260200190815260200160002060009054906101000a900473ffffffffffffffffffffffffffffffffffffffff1673ffffffffffffffffffffffffffffffffffffffff1673ffffffffffffffffffffffffffffffffffffffff16815260200190815260200160002060008373ffffffffffffffffffffffffffffffffffffffff1673ffffffffffffffffffffffffffffffffffffffff16815260200190815260200160002060009054906101000a900460ff165b151561137b57600080fd5b600073ffffffffffffffffffffffffffffffffffffffff168473ffffffffffffffffffffffffffffffffffffffff16141580156113bc575060028054905083105b80156113f357506002838154811015156113d257fe5b906000526020600020906003020160020160009054906101000a900460ff16155b15156113fe57600080fd5b611406614467565b8360cd600085815260200190815260200160002060006101000a81548173ffffffffffffffffffffffffffffffffffffffff021916908373ffffffffffffffffffffffffffffffffffffffff16021790555060cf60008573ffffffffffffffffffffffffffffffffffffffff1673ffffffffffffffffffffffffffffffffffffffff1681526020019081526020016000206000815480929190600101919050555060cf60008673ffffffffffffffffffffffffffffffffffffffff1673ffffffffffffffffffffffffffffffffffffffff1681526020019081526020016000206000815480929190600190039190505550828473ffffffffffffffffffffffffffffffffffffffff168673ffffffffffffffffffffffffffffffffffffffff167fddf252ad1be2c89b69c2b068fc378daa952ba7f163c4a11628f55a4df523b3ef60405160405180910390a45050505050565b600080600060ce60003373ffffffffffffffffffffffffffffffffffffffff1673ffffffffffffffffffffffffffffffffffffffff168152602001908152602001600020541115156115aa57600080fd5b60ce60003373ffffffffffffffffffffffffffffffffffffffff1673ffffffffffffffffffffffffffffffffffffffff168152602001908152602001600020549050600060ce60003373ffffffffffffffffffffffffffffffffffffffff1673ffffffffffffffffffffffffffffffffffffffff168152602001908152602001600020819055503373ffffffffffffffffffffffffffffffffffffffff166108fc829081150290604051600060405180830381858888f19350505050158015611677573d6000803e3d6000fd5b508091505090565b33818173ffffffffffffffffffffffffffffffffffffffff1660cd600083815260200190815260200160002060009054906101000a900473ffffffffffffffffffffffffffffffffffffffff1673ffffffffffffffffffffffffffffffffffffffff16148061174c57508173ffffffffffffffffffffffffffffffffffffffff1660d1600083815260200190815260200160002060009054906101000a900473ffffffffffffffffffffffffffffffffffffffff1673ffffffffffffffffffffffffffffffffffffffff16145b80611810575060d0600060cd600084815260200190815260200160002060009054906101000a900473ffffffffffffffffffffffffffffffffffffffff1673ffffffffffffffffffffffffffffffffffffffff1673ffffffffffffffffffffffffffffffffffffffff16815260200190815260200160002060008373ffffffffffffffffffffffffffffffffffffffff1673ffffffffffffffffffffffffffffffffffffffff16815260200190815260200160002060009054906101000a900460ff165b151561181b57600080fd5b611837858585602060405190810160405280600081525061327d565b5050505050565b60008060009054906101000a900473ffffffffffffffffffffffffffffffffffffffff1673ffffffffffffffffffffffffffffffffffffffff163373ffffffffffffffffffffffffffffffffffffffff1614151561189b57600080fd5b600260e0604051908101604052808960ff1681526020018860ff1681526020018760ff1681526020018660ff1681526020018560ff168152602001848152602001600015158152509080600181540180825580915050906001820390600052602060002090600302016000909192909190915060008201518160000160006101000a81548160ff021916908360ff16021790555060208201518160000160016101000a81548160ff021916908360ff16021790555060408201518160000160026101000a81548160ff021916908360ff16021790555060608201518160000160036101000a81548160ff021916908360ff16021790555060808201518160000160046101000a81548160ff021916908360ff16021790555060a0820151816001015560c08201518160020160006101000a81548160ff0219169083151502179055505050503360cd6000600280549050815260200190815260200160002060006101000a81548173ffffffffffffffffffffffffffffffffffffffff021916908373ffffffffffffffffffffffffffffffffffffffff1602179055506001600280549050033373ffffffffffffffffffffffffffffffffffffffff16600073ffffffffffffffffffffffffffffffffffffffff167fddf252ad1be2c89b69c2b068fc378daa952ba7f163c4a11628f55a4df523b3ef60405160405180910390a460028054905090509695505050505050565b60008073ffffffffffffffffffffffffffffffffffffffff1660cd600084815260200190815260200160002060009054906101000a900473ffffffffffffffffffffffffffffffffffffffff1673ffffffffffffffffffffffffffffffffffffffff1614151515611b1d57600080fd5b60cd600083815260200190815260200160002060009054906101000a900473ffffffffffffffffffffffffffffffffffffffff169050919050565b6000806000611b65615cb5565b6000806000873410158015611bc857506064606760003373ffffffffffffffffffffffffffffffffffffffff1673ffffffffffffffffffffffffffffffffffffffff1681526020019081526020016000206000600281101515611bc457fe5b0154145b1515611bd357600080fd5b600096505b6005871015611d3e573373ffffffffffffffffffffffffffffffffffffffff1660cd60008b8a600581101515611c0a57fe5b602002013563ffffffff1663ffffffff16815260200190815260200160002060009054906101000a900473ffffffffffffffffffffffffffffffffffffffff1673ffffffffffffffffffffffffffffffffffffffff16148015611cb6575060028988600581101515611c7857fe5b602002013563ffffffff1663ffffffff16815481101515611c9557fe5b906000526020600020906003020160020160009054906101000a900460ff16155b1515611cc157600080fd5b600095505b6005861015611d31578886600581101515611cdd57fe5b602002013563ffffffff1663ffffffff168988600581101515611cfc57fe5b602002013563ffffffff1663ffffffff16141580611d1957508587145b1515611d2457600080fd5b8580600101965050611cc6565b8680600101975050611bd8565b600096505b6005871015611dc45760028988600581101515611d5c57fe5b602002013563ffffffff1663ffffffff16815481101515611d7957fe5b906000526020600020906003020160000160039054906101000a900460ff168488600581101515611da657fe5b602002019060ff16908160ff16815250508680600101975050611d43565b600196505b6005871015611e8e578387600581101515611de057fe5b602002015192506001870395505b60008610158015611e1657508386600581101515611e0857fe5b602002015160ff168360ff16105b15611e5e578386600581101515611e2957fe5b60200201518460018801600581101515611e3f57fe5b602002019060ff16908160ff1681525050858060019003965050611dee565b828460018801600581101515611e7057fe5b602002019060ff16908160ff16815250508680600101975050611dc9565b6001846002600581101515611e9f57fe5b60200201510360ff16945060d36006600c81101515611eba57fe5b600491828204019190066008029054906101000a900467ffffffffffffffff1667ffffffffffffffff16851015611f285760d36006600c81101515611efb57fe5b600491828204019190066008029054906101000a900467ffffffffffffffff1667ffffffffffffffff1694505b60d36006600c81101515611f3857fe5b600491828204019190066008029054906101000a900467ffffffffffffffff1667ffffffffffffffff16850396505b60d36006600c81101515611f7757fe5b600491828204019190066008029054906101000a900467ffffffffffffffff1667ffffffffffffffff1685018711158015611fb25750606487105b15612157576000606888606481101515611fc857fe5b01541415611fd55761214a565b611ff06000606889606481101515611fe957fe5b01546110e2565b91508195505b8160688860648110151561200657fe5b0154018610156121495760688760648110151561201f57fe5b01548681151561202b57fe5b0690503460038860648110151561203e57fe5b016000838152602001908152602001600020600201541115801561208657508760038860648110151561206d57fe5b0160008381526020019081526020016000206003015410155b801561210257503373ffffffffffffffffffffffffffffffffffffffff166003886064811015156120b357fe5b01600083815260200190815260200160002060000160009054906101000a900473ffffffffffffffffffffffffffffffffffffffff1673ffffffffffffffffffffffffffffffffffffffff1614155b1561213c5761213787828b6005806020026040519081016040528092919082600560200280828437820191505050505061451d565b61237e565b8580600101965050611ff6565b5b8680600101975050611f67565b600096505b60058710156121ca57600160028a600060058110151561217857fe5b602002013563ffffffff1663ffffffff1681548110151561219557fe5b906000526020600020906003020160020160006101000a81548160ff021916908315150217905550868060010197505061215c565b6080604051908101604052803373ffffffffffffffffffffffffffffffffffffffff1681526020018a6005806020026040519081016040528092919082600560200280828437820191505050505081526020018981526020013481525060038660648110151561223657fe5b01600060688860648110151561224857fe5b0154815260200190815260200160002060008201518160000160006101000a81548173ffffffffffffffffffffffffffffffffffffffff021916908373ffffffffffffffffffffffffffffffffffffffff1602179055506020820151816001019060056122b6929190615cd8565b5060408201518160020155606082015181600301559050506122d7336151ce565b15156122e7576122e5611559565b505b6068856064811015156122f657fe5b01600081548092919060010191905055506040805190810160405280868152602001600160688860648110151561232957fe5b015403815250606760003373ffffffffffffffffffffffffffffffffffffffff1673ffffffffffffffffffffffffffffffffffffffff16815260200190815260200160002090600261237c929190615d7b565b505b505050505050505050565b60008073ffffffffffffffffffffffffffffffffffffffff168273ffffffffffffffffffffffffffffffffffffffff16141515156123c657600080fd5b60cf60008373ffffffffffffffffffffffffffffffffffffffff1673ffffffffffffffffffffffffffffffffffffffff168152602001908152602001600020549050919050565b600160009054906101000a900473ffffffffffffffffffffffffffffffffffffffff1673ffffffffffffffffffffffffffffffffffffffff163373ffffffffffffffffffffffffffffffffffffffff1614151561246957600080fd5b600160009054906101000a900473ffffffffffffffffffffffffffffffffffffffff1673ffffffffffffffffffffffffffffffffffffffff166000809054906101000a900473ffffffffffffffffffffffffffffffffffffffff1673ffffffffffffffffffffffffffffffffffffffff167f8be0079c531659141344cd1fd0a4f28419497f9722a3daafe3b4186f6b6457e060405160405180910390a3336000806101000a81548173ffffffffffffffffffffffffffffffffffffffff021916908373ffffffffffffffffffffffffffffffffffffffff160217905550565b60028263ffffffff1681548110151561255d57fe5b906000526020600020906003020160020160009054906101000a900460ff1615806125a75750600060cc60008463ffffffff1663ffffffff16815260200190815260200160002054115b801561261757503373ffffffffffffffffffffffffffffffffffffffff1660cd60008463ffffffff16815260200190815260200160002060009054906101000a900473ffffffffffffffffffffffffffffffffffffffff1673ffffffffffffffffffffffffffffffffffffffff16145b151561262257600080fd5b8060cc60008463ffffffff1663ffffffff1681526020019081526020016000208190555060008114612655576001612658565b60005b60028363ffffffff1681548110151561266d57fe5b906000526020600020906003020160020160006101000a81548160ff021916908315150217905550803373ffffffffffffffffffffffffffffffffffffffff167ff924003c65581b32c1ca2123e131a27f2124f08fce76c9a94c102c80c2d5b4a684604051808263ffffffff1663ffffffff16815260200191505060405180910390a35050565b60cc6020528060005260406000206000915090505481565b60d381600c8110151561271b57fe5b60049182820401919006600802915054906101000a900467ffffffffffffffff1681565b8060d060003373ffffffffffffffffffffffffffffffffffffffff1673ffffffffffffffffffffffffffffffffffffffff16815260200190815260200160002060008473ffffffffffffffffffffffffffffffffffffffff1673ffffffffffffffffffffffffffffffffffffffff16815260200190815260200160002060006101000a81548160ff0219169083151502179055508173ffffffffffffffffffffffffffffffffffffffff163373ffffffffffffffffffffffffffffffffffffffff167f17307eab39ab6107e8899845ad3d59bd9653f200f220920489ca2b5937696c3183604051808215151515815260200191505060405180910390a35050565b600080600060cc60008563ffffffff1663ffffffff16815260200190815260200160002054118015612891575060cc60008463ffffffff1663ffffffff168152602001908152602001600020543410155b151561289c57600080fd5b600060cc60008563ffffffff1663ffffffff1681526020019081526020016000208190555060cd60008463ffffffff16815260200190815260200160002060009054906101000a900473ffffffffffffffffffffffffffffffffffffffff16915061271061294c60d36009600c8110151561291357fe5b600491828204019190066008029054906101000a900467ffffffffffffffff1667ffffffffffffffff16346151e190919063ffffffff16565b81151561295557fe5b0490506129bc816129ae3460ce60008773ffffffffffffffffffffffffffffffffffffffff1673ffffffffffffffffffffffffffffffffffffffff1681526020019081526020016000205461521990919063ffffffff16565b61523890919063ffffffff16565b60ce60008473ffffffffffffffffffffffffffffffffffffffff1673ffffffffffffffffffffffffffffffffffffffff16815260200190815260200160002081905550612a728160ce60008060009054906101000a900473ffffffffffffffffffffffffffffffffffffffff1673ffffffffffffffffffffffffffffffffffffffff1673ffffffffffffffffffffffffffffffffffffffff1681526020019081526020016000205461521990919063ffffffff16565b60ce60008060009054906101000a900473ffffffffffffffffffffffffffffffffffffffff1673ffffffffffffffffffffffffffffffffffffffff1673ffffffffffffffffffffffffffffffffffffffff168152602001908152602001600020819055503360d160008563ffffffff16815260200190815260200160002060006101000a81548173ffffffffffffffffffffffffffffffffffffffff021916908373ffffffffffffffffffffffffffffffffffffffff1602179055508263ffffffff163373ffffffffffffffffffffffffffffffffffffffff168373ffffffffffffffffffffffffffffffffffffffff167f8c5be1e5ebec7d5bd14f71427d1e84f3dd0314c0f7b2291e5b200ac8c7c3b92560405160405180910390a4600060028463ffffffff16815481101515612ba657fe5b906000526020600020906003020160020160006101000a81548160ff021916908315150217905550612bdf82338563ffffffff166111df565b505050565b600080600080600080600060d36002600c81101515612bff57fe5b600491828204019190066008029054906101000a900467ffffffffffffffff1667ffffffffffffffff1634101515612c725760d36005600c81101515612c4157fe5b600491828204019190066008029054906101000a900467ffffffffffffffff1667ffffffffffffffff169650612d7f565b60d36001600c81101515612c8257fe5b600491828204019190066008029054906101000a900467ffffffffffffffff1667ffffffffffffffff1634101515612cf55760d36004600c81101515612cc457fe5b600491828204019190066008029054906101000a900467ffffffffffffffff1667ffffffffffffffff169650612d7e565b60d36000600c81101515612d0557fe5b600491828204019190066008029054906101000a900467ffffffffffffffff1667ffffffffffffffff1634101515612d785760d36003600c81101515612d4757fe5b600491828204019190066008029054906101000a900467ffffffffffffffff1667ffffffffffffffff169650612d7d565b600080fd5b5b5b612d87614467565b600094505b600685101561306d573360cd6000600280549050815260200190815260200160002060006101000a81548173ffffffffffffffffffffffffffffffffffffffff021916908373ffffffffffffffffffffffffffffffffffffffff160217905550612dfb600088612710036110e2565b93506001841415612e1757601192506015915060039050612e5a565b600b841015612e3157600e92506011915060029050612e59565b60c8841015612e4b57600b9250600e915060019050612e58565b60089250600b9150600090505b5b5b600260e060405190810160405280612e7286866110e2565b60ff168152602001612e8486866110e2565b60ff168152602001612e9686866110e2565b60ff168152602001600160ff1681526020018360ff16815260200160008152602001600015158152509080600181540180825580915050906001820390600052602060002090600302016000909192909190915060008201518160000160006101000a81548160ff021916908360ff16021790555060208201518160000160016101000a81548160ff021916908360ff16021790555060408201518160000160026101000a81548160ff021916908360ff16021790555060608201518160000160036101000a81548160ff021916908360ff16021790555060808201518160000160046101000a81548160ff021916908360ff16021790555060a0820151816001015560c08201518160020160006101000a81548160ff0219169083151502179055505050506001600280549050033373ffffffffffffffffffffffffffffffffffffffff16600073ffffffffffffffffffffffffffffffffffffffff167fddf252ad1be2c89b69c2b068fc378daa952ba7f163c4a11628f55a4df523b3ef60405160405180910390a4600160028054905003868660068110151561303757fe5b600891828204019190066004026101000a81548163ffffffff021916908363ffffffff1602179055508480600101955050612d8c565b3373ffffffffffffffffffffffffffffffffffffffff167fad1f291efd41642f8dfebb6bfc7fae8725716b968743bac9010db2a02a126f45876040518082600680156130fa576020028201916000905b82829054906101000a900463ffffffff1663ffffffff16815260200190600401906020826003010492830192600103820291508084116130bd5790505b505091505060405180910390a261315a600660cf60003373ffffffffffffffffffffffffffffffffffffffff1673ffffffffffffffffffffffffffffffffffffffff1681526020019081526020016000205461521990919063ffffffff16565b60cf60003373ffffffffffffffffffffffffffffffffffffffff1673ffffffffffffffffffffffffffffffffffffffff168152602001908152602001600020819055506132103460ce60008060009054906101000a900473ffffffffffffffffffffffffffffffffffffffff1673ffffffffffffffffffffffffffffffffffffffff1673ffffffffffffffffffffffffffffffffffffffff1681526020019081526020016000205461521990919063ffffffff16565b60ce60008060009054906101000a900473ffffffffffffffffffffffffffffffffffffffff1673ffffffffffffffffffffffffffffffffffffffff1673ffffffffffffffffffffffffffffffffffffffff1681526020019081526020016000208190555050505050505050565b600033838173ffffffffffffffffffffffffffffffffffffffff1660cd600083815260200190815260200160002060009054906101000a900473ffffffffffffffffffffffffffffffffffffffff1673ffffffffffffffffffffffffffffffffffffffff16148061334c57508173ffffffffffffffffffffffffffffffffffffffff1660d1600083815260200190815260200160002060009054906101000a900473ffffffffffffffffffffffffffffffffffffffff1673ffffffffffffffffffffffffffffffffffffffff16145b80613410575060d0600060cd600084815260200190815260200160002060009054906101000a900473ffffffffffffffffffffffffffffffffffffffff1673ffffffffffffffffffffffffffffffffffffffff1673ffffffffffffffffffffffffffffffffffffffff16815260200190815260200160002060008373ffffffffffffffffffffffffffffffffffffffff1673ffffffffffffffffffffffffffffffffffffffff16815260200190815260200160002060009054906101000a900460ff165b151561341b57600080fd5b6134268787876111df565b61342f866151ce565b156135f1578573ffffffffffffffffffffffffffffffffffffffff1663f0b9e5ba8887876040518463ffffffff167c0100000000000000000000000000000000000000000000000000000000028152600401808473ffffffffffffffffffffffffffffffffffffffff1673ffffffffffffffffffffffffffffffffffffffff16815260200183815260200180602001828103825283818151815260200191508051906020019080838360005b838110156134f65780820151818401526020810190506134db565b50505050905090810190601f1680156135235780820380516001836020036101000a031916815260200191505b50945050505050602060405180830381600087803b15801561354457600080fd5b505af1158015613558573d6000803e3d6000fd5b505050506040513d602081101561356e57600080fd5b8101908080519060200190929190505050925063f0b9e5ba7c0100000000000000000000000000000000000000000000000000000000027bffffffffffffffffffffffffffffffffffffffffffffffffffffffff1916837bffffffffffffffffffffffffffffffffffffffffffffffffffffffff19161415156135f057600080fd5b5b50505050505050565b60028181548110151561360957fe5b90600052602060002090600302016000915090508060000160009054906101000a900460ff16908060000160019054906101000a900460ff16908060000160029054906101000a900460ff16908060000160039054906101000a900460ff16908060000160049054906101000a900460ff16908060010154908060020160009054906101000a900460ff16905087565b6000809054906101000a900473ffffffffffffffffffffffffffffffffffffffff1673ffffffffffffffffffffffffffffffffffffffff163373ffffffffffffffffffffffffffffffffffffffff161415156136f457600080fd5b60008161ffff161015801561370d5750600b8260ff1611155b151561371857600080fd5b8160ff167fd7dd2782a7cef7ee43cf5a86222e0655f51235bf832cc5859c1687c29799fa7360d38460ff16600c8110151561374f57fe5b600491828204019190066008029054906101000a900467ffffffffffffffff1683604051808367ffffffffffffffff1681526020018261ffff1681526020019250505060405180910390a28061ffff1660d38360ff16600c811015156137b157fe5b600491828204019190066008026101000a81548167ffffffffffffffff021916908367ffffffffffffffff1602179055505050565b600060d060008473ffffffffffffffffffffffffffffffffffffffff1673ffffffffffffffffffffffffffffffffffffffff16815260200190815260200160002060008373ffffffffffffffffffffffffffffffffffffffff1673ffffffffffffffffffffffffffffffffffffffff16815260200190815260200160002060009054906101000a900460ff16905092915050565b6000806000606760003373ffffffffffffffffffffffffffffffffffffffff1673ffffffffffffffffffffffffffffffffffffffff16815260200190815260200160002060006002811015156138cc57fe5b01549250606483141515156138e057600080fd5b606760003373ffffffffffffffffffffffffffffffffffffffff1673ffffffffffffffffffffffffffffffffffffffff168152602001908152602001600020600160028110151561392d57fe5b015491506139eb60038460648110151561394357fe5b0160008481526020019081526020016000206003015460ce600060038760648110151561396c57fe5b01600087815260200190815260200160002060000160009054906101000a900473ffffffffffffffffffffffffffffffffffffffff1673ffffffffffffffffffffffffffffffffffffffff1673ffffffffffffffffffffffffffffffffffffffff1681526020019081526020016000205461521990919063ffffffff16565b60ce60006003866064811015156139fe57fe5b01600086815260200190815260200160002060000160009054906101000a900473ffffffffffffffffffffffffffffffffffffffff1673ffffffffffffffffffffffffffffffffffffffff1673ffffffffffffffffffffffffffffffffffffffff16815260200190815260200160002081905550600090505b6005811015613b185760006002600385606481101515613a9357fe5b01600085815260200190815260200160002060010183600581101515613ab557fe5b600891828204019190066004029054906101000a900463ffffffff1663ffffffff16815481101515613ae357fe5b906000526020600020906003020160020160006101000a81548160ff0219169083151502179055508080600101915050613a77565b600383606481101515613b2757fe5b0160006001606886606481101515613b3b57fe5b0154038152602001908152602001600020600384606481101515613b5b57fe5b0160008481526020019081526020016000206000820160009054906101000a900473ffffffffffffffffffffffffffffffffffffffff168160000160006101000a81548173ffffffffffffffffffffffffffffffffffffffff021916908373ffffffffffffffffffffffffffffffffffffffff1602179055506001820181600101906005613bea929190615dbb565b506002820154816002015560038201548160030155905050606883606481101515613c1157fe5b0160008154809291906001900391905055506040805190810160405280606460ff168152602001600060ff16815250606760003373ffffffffffffffffffffffffffffffffffffffff1673ffffffffffffffffffffffffffffffffffffffff168152602001908152602001600020906002613c8d929190615e06565b50505050565b63f0b9e5ba7c01000000000000000000000000000000000000000000000000000000000281565b600063f0b9e5ba7c0100000000000000000000000000000000000000000000000000000000029050949350505050565b6000806000888890508b8b9050148015613d0957508686905089899050145b8015613d1a57508484905087879050145b1515613d2557600080fd5b600091505b8a8a905082101561445a57600092503373ffffffffffffffffffffffffffffffffffffffff1660cd60008d8d868181101515613d6257fe5b9050602002013563ffffffff1663ffffffff16815260200190815260200160002060009054906101000a900473ffffffffffffffffffffffffffffffffffffffff1673ffffffffffffffffffffffffffffffffffffffff16141515613dc657600080fd5b5b60028b8b848181101515613dd757fe5b9050602002013563ffffffff1663ffffffff16815481101515613df657fe5b9060005260206000209060030201600101546005600360028e8e878181101515613e1c57fe5b9050602002013563ffffffff1663ffffffff16815481101515613e3b57fe5b906000526020600020906003020160000160039054906101000a900460ff1660ff160a811515613e6757fe5b0411158015613ec65750606460028c8c858181101515613e8357fe5b9050602002013563ffffffff1663ffffffff16815481101515613ea257fe5b906000526020600020906003020160000160039054906101000a900460ff1660ff16105b15613f745760028b8b848181101515613edb57fe5b9050602002013563ffffffff1663ffffffff16815481101515613efa57fe5b9060005260206000209060030201600001600381819054906101000a900460ff168092919060010191906101000a81548160ff021916908360ff1602179055505060d3600a600c81101515613f4b57fe5b600491828204019190066008029054906101000a900467ffffffffffffffff1683019250613dc7565b8260ff16613feb8686858181101515613f8957fe5b9050602002013560ff1660ff16613fdd8a8a878181101515613fa757fe5b9050602002013560ff1660ff168d8d888181101515613fc257fe5b9050602002013560ff1660ff1661521990919063ffffffff16565b61521990919063ffffffff16565b11151515613ff857600080fd5b6014600c600b60028e8e87818110151561400e57fe5b9050602002013563ffffffff1663ffffffff1681548110151561402d57fe5b906000526020600020906003020160000160039054906101000a900460ff1660ff1681151561405857fe5b04020160ff1690506140dd898984818110151561407157fe5b9050602002013560ff1660ff1660028d8d86818110151561408e57fe5b9050602002013563ffffffff1663ffffffff168154811015156140ad57fe5b906000526020600020906003020160000160009054906101000a900460ff1660ff1661521990919063ffffffff16565b8110158015614168575061416487878481811015156140f857fe5b9050602002013560ff1660ff1660028d8d86818110151561411557fe5b9050602002013563ffffffff1663ffffffff1681548110151561413457fe5b906000526020600020906003020160000160019054906101000a900460ff1660ff1661521990919063ffffffff16565b8110155b80156141f057506141ec858584818110151561418057fe5b9050602002013560ff1660ff1660028d8d86818110151561419d57fe5b9050602002013563ffffffff1663ffffffff168154811015156141bc57fe5b906000526020600020906003020160000160029054906101000a900460ff1660ff1661521990919063ffffffff16565b8110155b15156141fb57600080fd5b888883818110151561420957fe5b9050602002013560ff1660028c8c85818110151561422357fe5b9050602002013563ffffffff1663ffffffff1681548110151561424257fe5b906000526020600020906003020160000160008282829054906101000a900460ff160192506101000a81548160ff021916908360ff160217905550868683818110151561428b57fe5b9050602002013560ff1660028c8c8581811015156142a557fe5b9050602002013563ffffffff1663ffffffff168154811015156142c457fe5b906000526020600020906003020160000160018282829054906101000a900460ff160192506101000a81548160ff021916908360ff160217905550848483818110151561430d57fe5b9050602002013560ff1660028c8c85818110151561432757fe5b9050602002013563ffffffff1663ffffffff1681548110151561434657fe5b906000526020600020906003020160000160028282829054906101000a900460ff160192506101000a81548160ff021916908360ff1602179055507f8a80140e41ad61a4458124652e64b7c3e9329b7107778fe19106dc675901302b8b8b8481811015156143b057fe5b9050602002013563ffffffff168a8a8581811015156143cb57fe5b9050602002013560ff1689898681811015156143e357fe5b9050602002013560ff1688888781811015156143fb57fe5b9050602002013560ff16604051808563ffffffff1663ffffffff1681526020018460ff1660ff1681526020018360ff1660ff1681526020018260ff1660ff16815260200194505050505060405180910390a18180600101925050613d2a565b5050505050505050505050565b600060cf60003373ffffffffffffffffffffffffffffffffffffffff1673ffffffffffffffffffffffffffffffffffffffff16815260200190815260200160002054141561451b576040805190810160405280606460ff168152602001600060ff16815250606760003373ffffffffffffffffffffffffffffffffffffffff1673ffffffffffffffffffffffffffffffffffffffff168152602001908152602001600020906002614519929190615e06565b505b565b614525615e4b565b61452d615e91565b614535615e91565b600080600080600080600060038d60648110151561454f57fe5b0160008d8152602001908152602001600020608060405190810160405290816000820160009054906101000a900473ffffffffffffffffffffffffffffffffffffffff1673ffffffffffffffffffffffffffffffffffffffff1673ffffffffffffffffffffffffffffffffffffffff1681526020016001820160058060200260405190810160405280929190826005801561462b576020028201916000905b82829054906101000a900463ffffffff1663ffffffff16815260200190600401906020826003010492830192600103820291508084116145ee5790505b5050505050815260200160028201548152602001600382015481525050995060688d60648110151561465957fe5b01600081548092919060019003919050555060038d60648110151561467a57fe5b01600060688f60648110151561468c57fe5b0154815260200190815260200160002060038e6064811015156146ab57fe5b0160008e81526020019081526020016000206000820160009054906101000a900473ffffffffffffffffffffffffffffffffffffffff168160000160006101000a81548173ffffffffffffffffffffffffffffffffffffffff021916908373ffffffffffffffffffffffffffffffffffffffff160217905550600182018160010190600561473a929190615dbb565b5060028201548160020155600382015481600301559050506040805190810160405280606460ff168152602001600060ff16815250606760008c6000015173ffffffffffffffffffffffffffffffffffffffff1673ffffffffffffffffffffffffffffffffffffffff1681526020019081526020016000209060026147c0929190615e06565b5060009c505b60058d1015614b02578a8d6005811015156147dd57fe5b6020020151898e6014811015156147f057fe5b602002019063ffffffff16908163ffffffff168152505060028b8e60058110151561481757fe5b602002015163ffffffff1681548110151561482e57fe5b906000526020600020906003020160000160009054906101000a900460ff1660ff168960058f0160148110151561486157fe5b602002019063ffffffff16908163ffffffff168152505060028b8e60058110151561488857fe5b602002015163ffffffff1681548110151561489f57fe5b906000526020600020906003020160000160019054906101000a900460ff1660ff1689600a8f016014811015156148d257fe5b602002019063ffffffff16908163ffffffff168152505060028b8e6005811015156148f957fe5b602002015163ffffffff1681548110151561491057fe5b906000526020600020906003020160000160029054906101000a900460ff1660ff1689600f8f0160148110151561494357fe5b602002019063ffffffff16908163ffffffff168152505089602001518d60058110151561496c57fe5b6020020151888e60148110151561497f57fe5b602002019063ffffffff16908163ffffffff168152505060028a602001518e6005811015156149aa57fe5b602002015163ffffffff168154811015156149c157fe5b906000526020600020906003020160000160009054906101000a900460ff1660ff168860058f016014811015156149f457fe5b602002019063ffffffff16908163ffffffff168152505060028a602001518e600581101515614a1f57fe5b602002015163ffffffff16815481101515614a3657fe5b906000526020600020906003020160000160019054906101000a900460ff1660ff1688600a8f01601481101515614a6957fe5b602002019063ffffffff16908163ffffffff168152505060028a602001518e600581101515614a9457fe5b602002015163ffffffff16815481101515614aab57fe5b906000526020600020906003020160000160029054906101000a900460ff1660ff1688600f8f01601481101515614ade57fe5b602002019063ffffffff16908163ffffffff16815250508c806001019d50506147c6565b60009c505b60058d1015614b7257600060028b602001518f600581101515614b2657fe5b602002015163ffffffff16815481101515614b3d57fe5b906000526020600020906003020160020160006101000a81548160ff0219169083151502179055508c806001019d5050614b07565b614b808b8b60200151615254565b96506001871415614ba4573395508960000151945034935089606001519250614e09565b6002871415614bc6578960000151955033945089606001519350349250614e08565b614c208a6060015160ce60008d6000015173ffffffffffffffffffffffffffffffffffffffff1673ffffffffffffffffffffffffffffffffffffffff1681526020019081526020016000205461521990919063ffffffff16565b60ce60008c6000015173ffffffffffffffffffffffffffffffffffffffff1673ffffffffffffffffffffffffffffffffffffffff16815260200190815260200160002081905550614cb93460ce60003373ffffffffffffffffffffffffffffffffffffffff1673ffffffffffffffffffffffffffffffffffffffff1681526020019081526020016000205461521990919063ffffffff16565b60ce60003373ffffffffffffffffffffffffffffffffffffffff1673ffffffffffffffffffffffffffffffffffffffff16815260200190815260200160002081905550868a6000015173ffffffffffffffffffffffffffffffffffffffff163373ffffffffffffffffffffffffffffffffffffffff167fdeb604bc66f2db85002d49e5e9a738a68e2f5b127db21e1e4632affedb74b9d78c8c60d3600b600c81101515614d6257fe5b600491828204019190066008029054906101000a900467ffffffffffffffff16886040518085601460200280838360005b83811015614dae578082015181840152602081019050614d93565b5050505090500184601460200280838360005b83811015614ddc578082015181840152602081019050614dc1565b505050509050018360ff1660ff16815260200182815260200194505050505060405180910390a46151bf565b5b348a606001511115614e1d57349150614e25565b896060015191505b612710614e7460d36009600c81101515614e3b57fe5b600491828204019190066008029054906101000a900467ffffffffffffffff1667ffffffffffffffff16846151e190919063ffffffff16565b811515614e7d57fe5b049050614ef684614ee883614eda8660ce60008d73ffffffffffffffffffffffffffffffffffffffff1673ffffffffffffffffffffffffffffffffffffffff1681526020019081526020016000205461521990919063ffffffff16565b61523890919063ffffffff16565b61521990919063ffffffff16565b60ce60008873ffffffffffffffffffffffffffffffffffffffff1673ffffffffffffffffffffffffffffffffffffffff16815260200190815260200160002081905550614f9d82614f8f8560ce60008a73ffffffffffffffffffffffffffffffffffffffff1673ffffffffffffffffffffffffffffffffffffffff1681526020019081526020016000205461521990919063ffffffff16565b61523890919063ffffffff16565b60ce60008773ffffffffffffffffffffffffffffffffffffffff1673ffffffffffffffffffffffffffffffffffffffff168152602001908152602001600020819055506150538160ce60008060009054906101000a900473ffffffffffffffffffffffffffffffffffffffff1673ffffffffffffffffffffffffffffffffffffffff1673ffffffffffffffffffffffffffffffffffffffff1681526020019081526020016000205461521990919063ffffffff16565b60ce60008060009054906101000a900473ffffffffffffffffffffffffffffffffffffffff1673ffffffffffffffffffffffffffffffffffffffff1673ffffffffffffffffffffffffffffffffffffffff16815260200190815260200160002081905550868a6000015173ffffffffffffffffffffffffffffffffffffffff163373ffffffffffffffffffffffffffffffffffffffff167fdeb604bc66f2db85002d49e5e9a738a68e2f5b127db21e1e4632affedb74b9d78c8c60d3600b600c8110151561511d57fe5b600491828204019190066008029054906101000a900467ffffffffffffffff16886040518085601460200280838360005b8381101561516957808201518184015260208101905061514e565b5050505090500184601460200280838360005b8381101561519757808201518184015260208101905061517c565b505050509050018360ff1660ff16815260200182815260200194505050505060405180910390a45b50505050505050505050505050565b600080823b905060008111915050919050565b6000808314156151f45760009050615213565b818302905081838281151561520557fe5b0414151561520f57fe5b8090505b92915050565b6000818301905082811015151561522f57600080fd5b80905092915050565b600082821115151561524957600080fd5b818303905092915050565b6000806000615261615eb5565b615269615eb5565b600080945060009350600090505b60058110156154bb5760806040519081016040528060028a8460058110151561529c57fe5b602002015163ffffffff168154811015156152b357fe5b906000526020600020906003020160000160009054906101000a900460ff1660ff16815260200160028a846005811015156152ea57fe5b602002015163ffffffff1681548110151561530157fe5b906000526020600020906003020160000160019054906101000a900460ff1660ff16815260200160028a8460058110151561533857fe5b602002015163ffffffff1681548110151561534f57fe5b906000526020600020906003020160000160029054906101000a900460ff1660ff168152602001600063ffffffff16815250838260068110151561538f57fe5b6020020181905250608060405190810160405280600289846005811015156153b357fe5b602002015163ffffffff168154811015156153ca57fe5b906000526020600020906003020160000160009054906101000a900460ff1660ff1681526020016002898460058110151561540157fe5b602002015163ffffffff1681548110151561541857fe5b906000526020600020906003020160000160019054906101000a900460ff1660ff1681526020016002898460058110151561544f57fe5b602002015163ffffffff1681548110151561546657fe5b906000526020600020906003020160000160029054906101000a900460ff1660ff168152602001600063ffffffff1681525082826006811015156154a657fe5b60200201819052508080600101915050615277565b600090505b6005811015615a0a5781816006811015156154d757fe5b60200201516040015160ff1683826006811015156154f157fe5b60200201516040015160ff16111561561057818160068110151561551157fe5b60200201516020015160ff16838260068110151561552b57fe5b60200201516000015160ff1611156155a657848060010195505060d3600b600c8110151561555557fe5b600491828204019190066008029054906101000a900467ffffffffffffffff16836001830160068110151561558657fe5b60200201516000018181510191509060ff16908160ff168152505061560b565b838060010194505060d3600b600c811015156155be57fe5b600491828204019190066008029054906101000a900467ffffffffffffffff1682600183016006811015156155ef57fe5b60200201516020018181510191509060ff16908160ff16815250505b6159fd565b818160068110151561561e57fe5b60200201516040015160ff16838260068110151561563857fe5b60200201516040015160ff16101561575757828160068110151561565857fe5b60200201516020015160ff16828260068110151561567257fe5b60200201516000015160ff1611156156ed57838060010194505060d3600b600c8110151561569c57fe5b600491828204019190066008029054906101000a900467ffffffffffffffff1682600183016006811015156156cd57fe5b60200201516000018181510191509060ff16908160ff1681525050615752565b848060010195505060d3600b600c8110151561570557fe5b600491828204019190066008029054906101000a900467ffffffffffffffff16836001830160068110151561573657fe5b60200201516020018181510191509060ff16908160ff16815250505b6159fc565b818160068110151561576557fe5b60200201516000015160ff16838260068110151561577f57fe5b60200201516000015160ff1611156157fa57848060010195505060d3600b600c811015156157a957fe5b600491828204019190066008029054906101000a900467ffffffffffffffff1683600183016006811015156157da57fe5b60200201516000018181510191509060ff16908160ff16815250506159fb565b818160068110151561580857fe5b60200201516000015160ff16838260068110151561582257fe5b60200201516000015160ff16101561589d57838060010194505060d3600b600c8110151561584c57fe5b600491828204019190066008029054906101000a900467ffffffffffffffff16826001830160068110151561587d57fe5b60200201516020018181510191509060ff16908160ff16815250506159fa565b81816006811015156158ab57fe5b60200201516020015160ff1683826006811015156158c557fe5b60200201516020015160ff16111561594057848060010195505060d3600b600c811015156158ef57fe5b600491828204019190066008029054906101000a900467ffffffffffffffff16836001830160068110151561592057fe5b60200201516020018181510191509060ff16908160ff16815250506159f9565b828160068110151561594e57fe5b60200201516020015160ff16838260068110151561596857fe5b60200201516020015160ff1610156159e357838060010194505060d3600b600c8110151561599257fe5b600491828204019190066008029054906101000a900467ffffffffffffffff1682600183016006811015156159c357fe5b60200201516020018181510191509060ff16908160ff16815250506159f8565b6159ef88886001615a54565b60009550615a49565b5b5b5b5b5b80806001019150506154c0565b615a32848611615a1a5787615a1c565b885b858710615a295788615a2b565b895b6000615a54565b838511615a40576002615a43565b60015b60ff1695505b505050505092915050565b60008090505b6005811015615caf57606460028583600581101515615a7557fe5b602002015163ffffffff16815481101515615a8c57fe5b906000526020600020906003020160000160039054906101000a900460ff1660ff161015615b655760d36007600c81101515615ac457fe5b600491828204019190066008029054906101000a900467ffffffffffffffff1667ffffffffffffffff1660028583600581101515615afe57fe5b602002015163ffffffff16815481101515615b1557fe5b9060005260206000209060030201600101540160028583600581101515615b3857fe5b602002015163ffffffff16815481101515615b4f57fe5b9060005260206000209060030201600101819055505b606460028483600581101515615b7757fe5b602002015163ffffffff16815481101515615b8e57fe5b906000526020600020906003020160000160039054906101000a900460ff1660ff161015615ca25781615bf05760d36008600c81101515615bcb57fe5b600491828204019190066008029054906101000a900467ffffffffffffffff16615c21565b60d36007600c81101515615c0057fe5b600491828204019190066008029054906101000a900467ffffffffffffffff165b67ffffffffffffffff1660028483600581101515615c3b57fe5b602002015163ffffffff16815481101515615c5257fe5b9060005260206000209060030201600101540160028483600581101515615c7557fe5b602002015163ffffffff16815481101515615c8c57fe5b9060005260206000209060030201600101819055505b8080600101915050615a5a565b50505050565b60a060405190810160405280600590602082028038833980820191505090505090565b826005600701600890048101928215615d6a5791602002820160005b83821115615d3857835183826101000a81548163ffffffff021916908363ffffffff1602179055509260200192600401602081600301049283019260010302615cf4565b8015615d685782816101000a81549063ffffffff0219169055600401602081600301049283019260010302615d38565b505b509050615d779190615ee4565b5090565b8260028101928215615daa579160200282015b82811115615da9578251825591602001919060010190615d8e565b5b509050615db79190615f17565b5090565b826005600701600890048101928215615df557916007016008900482015b82811115615df4578254825591600101919060010190615dd9565b5b509050615e029190615ee4565b5090565b8260028101928215615e3a579160200282015b82811115615e39578251829060ff16905591602001919060010190615e19565b5b509050615e479190615f17565b5090565b61010060405190810160405280600073ffffffffffffffffffffffffffffffffffffffff168152602001615e7d615f3c565b815260200160008152602001600081525090565b61028060405190810160405280601490602082028038833980820191505090505090565b610300604051908101604052806006905b615ece615f5f565b815260200190600190039081615ec65790505090565b615f1491905b80821115615f1057600081816101000a81549063ffffffff021916905550600101615eea565b5090565b90565b615f3991905b80821115615f35576000816000905550600101615f1d565b5090565b90565b60a060405190810160405280600590602082028038833980820191505090505090565b608060405190810160405280600060ff168152602001600060ff168152602001600060ff168152602001600063ffffffff16815250905600a165627a7a72305820d1a49ac14535b075025ee42a47c501a3ffdc1fa77e469e449afff915e10b7cf60029",
  "source": "pragma solidity ^0.4.24;\n\nimport \"./AdminPanel.sol\";\nimport \"./SafeMath.sol\";\n\n\ncontract CryptoMon is AdminPanel {\n\n    using SafeMath for uint8;\n\n    constructor() public {\n        seed = now;\n    }\n\n    function unbox()\n        external\n        payable\n    {\n        uint256 _modifier;\n        if (msg.value >= params[2]) {\n            _modifier = params[5];\n        } else if (msg.value >= params[1]) {\n            _modifier = params[4];\n        } else if (msg.value >= params[0]) {\n            _modifier = params[3];\n        } else {\n            revert();\n        }\n\n        firstLogin();\n\n        uint32[6] _ids;\n\n        for (uint256 i = 0; i < 6; i++) {\n            owner[monsters.length] = msg.sender;\n            uint256 _tmp = randInt(0, 10000-_modifier);\n            uint256 _modRarityMin;\n            uint256 _modRarityMax;\n            uint8 _rarity;\n\n            if (_tmp == 1) {\n                _modRarityMin = 17;\n                _modRarityMax = 21;\n                _rarity = 3;\n            } else if (_tmp < 11) {\n                _modRarityMin = 14;\n                _modRarityMax = 17;\n                _rarity = 2;\n            } else if (_tmp < 200) {\n                _modRarityMin = 11;\n                _modRarityMax = 14;\n                _rarity = 1;\n            } else {\n                _modRarityMin = 8;\n                _modRarityMax = 11;\n                _rarity = 0;\n            }\n\n            monsters.push(\n                Monster(\n                    uint8(randInt(_modRarityMin, _modRarityMax)),\n                    uint8(randInt(_modRarityMin, _modRarityMax)),\n                    uint8(randInt(_modRarityMin, _modRarityMax)),\n                    1,\n                    _rarity,\n                    0,\n                    false\n                )\n            );\n\n            emit Transfer(address(0), msg.sender, monsters.length - 1);\n            _ids[i] = uint32(monsters.length - 1);\n        }\n\n        emit Unboxed(msg.sender, _ids);\n\n        balances[msg.sender] = balances[msg.sender].add(6);\n        money[contractOwner] = money[contractOwner].add(msg.value);\n    }\n\n    function fight(uint32[5] _ids, uint256 _minBet)\n        external\n        payable\n    {\n        //Check that you actually payed at least your minimum bet and that you are not already waiting.\n        require(msg.value >= _minBet && isWaiting[msg.sender][0] == 100);\n        for (uint256 i = 0; i < 5; i++) {\n            //Check that you own all of the monsters you want to use to attack and that they aren't busy\n            require(owner[_ids[i]] == msg.sender && !monsters[_ids[i]].busy);\n            for (uint256 j = 0; j < 5; j++) {\n                //check that there aren't any duplicates in your squad\n                require(_ids[i] != _ids[j] || i == j);\n            }\n        }\n\n        //Sets the matchmaking level.\n        uint256 _level;\n        uint8[5] memory _tmp;\n        for (i = 0; i < 5; i++)\n            _tmp[i] = monsters[_ids[i]].lvl;\n\n        //Insertion sort algorithm\n        for (i = 1; i < 5; i++) {\n            uint8 temp = _tmp[i];\n            for (j = i - 1; j >= 0 && temp < _tmp[j]; j--)\n                _tmp[j+1] = _tmp[j];\n            _tmp[j + 1] = temp;\n        }\n\n        //The waiting queue has only 100 spaces, this means that its last index is 99, not 100.\n        _level = _tmp[2] - 1;\n\n        //Used to prevent underflow. More efficient than doing other checks\n        if (_level < params[6])\n            _level = params[6];\n\n        //Checks for every level in range.\n        for (i = _level - params[6]; i <= _level + params[6] && i < 100; i++) {\n\n            //Skips current range to save gas and prevent errors when using %0\n            if (waitingLength[i] == 0)\n                continue;\n\n            //Checks for every person in the current waiting level to find someone who has the same bet range as you.\n            //Starts to check from a random position in the array, to prevent unlucky people from never playing.\n            //Note that waiting is an array of mappings, this is because arrays are broken, and .length is not\n            //reset after deleting the last element.\n            uint256 _start = randInt(0, waitingLength[i]);\n            for (j = _start; j < waitingLength[i] + _start; j++) {\n                //j needs to be \"modulized\", to loop back in front of the array.\n                uint256 j_ = j % waitingLength[i];\n\n                //If it finds someone the fight starts and the functions returns.\n                if (\n                    waiting[i][j_].minBet <= msg.value &&\n                    waiting[i][j_].bet >= _minBet &&\n                    waiting[i][j_].addr != msg.sender\n                )\n                    return computeBattleResults(i, j_, _ids);\n            }\n        }\n\n        //If the contract couldn\"t find anyone, it puts you in the waiting list.\n        //All of your monsters are marked as busy.\n        for (i = 0; i < 5; i++)\n            monsters[_ids[0]].busy = true;\n\n        waiting[_level][waitingLength[_level]] = Defender(\n            msg.sender,\n            _ids,\n            _minBet,\n            msg.value\n        );\n\n        if(!isContract(msg.sender)) withdraw();\n\n        waitingLength[_level]++;\n\n        //Sets waiting state\n        isWaiting[msg.sender] = [_level, waitingLength[_level] - 1];\n    }\n\n    function stopWaiting()\n        external\n    {\n        uint256 _x = isWaiting[msg.sender][0];\n        require(_x != 100);\n        uint256 _y = isWaiting[msg.sender][1];\n\n        money[waiting[_x][_y].addr] = money[waiting[_x][_y].addr].add(waiting[_x][_y].bet);\n\n        for (uint256 i = 0; i < 5; i++)\n            monsters[waiting[_x][_y].deck[i]].busy = false;\n\n        waiting[_x][_y] = waiting[_x][waitingLength[_x] - 1];\n        waitingLength[_x]--;\n        isWaiting[msg.sender] = [100, 0];\n    }\n\n    function sellMonster(\n        uint32 _id,\n        uint256 _price\n    )\n        external\n    {\n        require((!monsters[_id].busy || inSale[_id] > 0) && owner[_id] == msg.sender);\n        inSale[_id] = _price;\n        monsters[_id].busy = (_price == 0) ? false : true;\n        emit ForSale(msg.sender, _id, _price);\n    }\n\n    function buyMonster(uint32 _id)\n        external\n        payable\n    {\n        require(inSale[_id] > 0 && msg.value >= inSale[_id]);\n        inSale[_id] = 0;\n        address owner_ = owner[_id];\n\n        uint256 _fees = msg.value.mul(params[9]) / 10000;\n        money[owner_] = money[owner_].add(msg.value).sub(_fees);\n        money[contractOwner] = money[contractOwner].add(_fees);\n\n        approved[_id] = msg.sender;\n        emit Approval(owner_, msg.sender, _id);\n\n        monsters[_id].busy = false;\n\n        transferFrom(owner_, msg.sender, _id);\n    }\n\n    function withdraw()\n        public\n        returns(uint)\n    {\n        require(money[msg.sender] > 0);\n        uint256 _amount = money[msg.sender];\n        money[msg.sender] = 0;\n        msg.sender.transfer(_amount);\n        return _amount;\n    }\n\n    function lvlUp (\n        uint32[] _ids,\n        uint8[] _atkMod,\n        uint8[] _defMod,\n        uint8[] _spdMod\n    )\n        external\n    {\n        require(\n            _ids.length == _atkMod.length &&\n            _atkMod.length == _defMod.length &&\n            _defMod.length == _spdMod.length\n        );\n\n        uint8 _skillsAvailable;\n\n        for (uint256 i = 0; i < _ids.length; i++) {\n            _skillsAvailable = 0;\n            require(owner[_ids[i]] == msg.sender);\n\n            while ( //TODO Wtf, can this be resolved without the need for a while loop?\n                ((uint256(monsters[_ids[i]].lvl)**3)/5) <= monsters[_ids[i]].exp &&\n                monsters[_ids[i]].lvl < 100\n            ) {\n                monsters[_ids[i]].lvl++;\n                _skillsAvailable += uint8(params[10]);\n            }\n\n\n            require(_atkMod[i].add(_defMod[i]).add(_spdMod[i]) <= _skillsAvailable);\n\n            uint256 _cap = monsters[_ids[i]].lvl/11*12+20;\n\n            require(\n                _cap >= monsters[_ids[i]].atk.add(_atkMod[i]) &&\n                _cap >= monsters[_ids[i]].def.add(_defMod[i]) &&\n                _cap >= monsters[_ids[i]].spd.add(_spdMod[i])\n            );\n\n            // No need to use safemath: overflows are checked for\n            // in the require above.\n            monsters[_ids[i]].atk += _atkMod[i];\n            monsters[_ids[i]].def += _defMod[i];\n            monsters[_ids[i]].spd += _spdMod[i];\n\n            emit Upgraded(\n                _ids[i],\n                _atkMod[i],\n                _defMod[i],\n                _spdMod[i]\n            );\n        }\n    }\n}\n",
  "sourcePath": "/home/emanuele/cryptomon/cryptomon-contracts/contracts/CryptoMon.sol",
  "compiler": {
    "name": "solc",
    "version": "0.4.24+commit.e67f0147.Emscripten.clang"
  },
  "schemaVersion": "2.0.0",
  "updatedAt": "2018-09-08T16:19:53.330Z"
}