{
  "contractName": "Owned",
  "abi": [
    {
      "inputs": [],
      "payable": false,
      "stateMutability": "nonpayable",
      "type": "constructor"
    },
    {
      "anonymous": false,
      "inputs": [
        {
          "indexed": true,
          "name": "_from",
          "type": "address"
        },
        {
          "indexed": true,
          "name": "_to",
          "type": "address"
        }
      ],
      "name": "OwnershipTransferred",
      "type": "event"
    },
    {
      "constant": false,
      "inputs": [
        {
          "name": "_newOwner",
          "type": "address"
        }
      ],
      "name": "nominateNewOwner",
      "outputs": [],
      "payable": false,
      "stateMutability": "nonpayable",
      "type": "function"
    },
    {
      "constant": false,
      "inputs": [],
      "name": "acceptOwnership",
      "outputs": [],
      "payable": false,
      "stateMutability": "nonpayable",
      "type": "function"
    }
  ],
  "bytecode": "0x608060405234801561001057600080fd5b50336000806101000a81548173ffffffffffffffffffffffffffffffffffffffff021916908373ffffffffffffffffffffffffffffffffffffffff1602179055506102b1806100606000396000f30060806040526004361061004c576000357c0100000000000000000000000000000000000000000000000000000000900463ffffffff1680631627540c1461005157806379ba509714610094575b600080fd5b34801561005d57600080fd5b50610092600480360381019080803573ffffffffffffffffffffffffffffffffffffffff1690602001909291905050506100ab565b005b3480156100a057600080fd5b506100a961014a565b005b6000809054906101000a900473ffffffffffffffffffffffffffffffffffffffff1673ffffffffffffffffffffffffffffffffffffffff163373ffffffffffffffffffffffffffffffffffffffff1614151561010657600080fd5b80600160006101000a81548173ffffffffffffffffffffffffffffffffffffffff021916908373ffffffffffffffffffffffffffffffffffffffff16021790555050565b600160009054906101000a900473ffffffffffffffffffffffffffffffffffffffff1673ffffffffffffffffffffffffffffffffffffffff163373ffffffffffffffffffffffffffffffffffffffff161415156101a657600080fd5b600160009054906101000a900473ffffffffffffffffffffffffffffffffffffffff1673ffffffffffffffffffffffffffffffffffffffff166000809054906101000a900473ffffffffffffffffffffffffffffffffffffffff1673ffffffffffffffffffffffffffffffffffffffff167f8be0079c531659141344cd1fd0a4f28419497f9722a3daafe3b4186f6b6457e060405160405180910390a3336000806101000a81548173ffffffffffffffffffffffffffffffffffffffff021916908373ffffffffffffffffffffffffffffffffffffffff1602179055505600a165627a7a723058209867a70579422e1b3c3c6cb9998d0b7541238c8537f44c3dadf4cafc302e3f6c0029",
  "source": "pragma solidity ^0.4.24;\n\n/**\n  * @title Owned\n  * @notice The owner of the contract can change game parameters (See AdminPanel)\n  * @notice and the money from fees and unboxes goes to its address.\n  * @author Matteo Bonacini\n  */\ncontract Owned {\n\n    // Addresses of the current contract owner and of the nominated one.\n    address internal contractOwner;\n    address private newOwner;\n\n    /** \n      * @notice Emitted when ownership is transferred.\n      * @param _from The old owner\n      * @param _to The new owner\n      */\n    event OwnershipTransferred(\n        address indexed _from,\n        address indexed _to\n    );\n\n    constructor() public {\n        // The initial owner is the creator of the contract.\n        contractOwner = msg.sender;\n    }\n\n    // Used in functions that must be called only from the owner.\n    modifier isOwner {\n        require(msg.sender == contractOwner);\n        _;\n    }\n\n    /**\n      * @notice Nominates an address to be the new owner. This address then\n      * @notice needs to accept ownership by calling the acceptOwnersip\n      * @notice function.\n      * @dev This is used as a security measure, preventing the current owner\n      * @dev from giving ownership to an invalid address.\n      * @param _newOwner The address to be nominated.\n      * @author Matteo Bonacini\n      */\n    function nominateNewOwner(address _newOwner) external isOwner {\n        // Stores the nominated owner's address.\n        newOwner = _newOwner;\n    }\n\n    /**\n      * @notice Use this function to accept ownership. In order to become the \n      * @notice new owner, you need to have been nominated by the old one.\n      * @notice Emits the OwnershipTransferred event if the transfer is succesful.\n      * @dev Throws if the address calling the function is not\n      * @dev the nominated address.\n      * @author Matteo Bonacini\n      */\n    function acceptOwnership() external {\n        // Checks that the address calling the function had been nominated\n        // by the current owner.\n        require(msg.sender == newOwner);\n\n        // Emits an event to inform everyone.\n        emit OwnershipTransferred(contractOwner, newOwner);\n\n        // Stores the new owner's address.\n        contractOwner = msg.sender;\n    }\n}\n",
  "sourcePath": "/home/emanuele/cryptomon/cryptomon-contracts/contracts/Owned.sol",
  "compiler": {
    "name": "solc",
    "version": "0.4.24+commit.e67f0147.Emscripten.clang"
  },
  "schemaVersion": "2.0.0",
  "updatedAt": "2018-08-20T11:42:14.775Z"
}